S00F0000484943313546572E737265633E
S11300000C948F050C94B7050C94B7050C94B705A4
S11300100C94B7050C94B7050C94B7050C94B7056C
S11300200C94B7050C94B7050C94B7050C94B7055C
S11300300C94B7050C94B7050C94B7050C94B7054C
S11300400C94970F0C94B7050C94F00D0C94220E9D
S11300500C94B7050C94B7050C94B7050C94B7052C
S11300600C94CE200C94B70507634236B79BD8A7EF
S11300701A39685618AEBAAB558C1D3CB7CC5763C9
S1130080BD6DEDFD753EF6177231BF000000803F77
S113009008000000BE922449123EABAAAA2ABECD93
S11300A0CCCC4C3E00000080BEABAAAAAA3E000005
S11300B00000BF000000803F0000000000084178FD
S11300C0D3BB4387D1133D190E3CC3BD4282AD2B34
S11300D03E68EC8276BED98FE1A93E4C80EFFFBE2C
S11300E001C4FF7F3F000000000000000008000280
S11300F001000003040700000000000000000102EA
S113010004081020408001020408102001020408A1
S1130110102004040404040404040202020202027F
S11301200303030303030000000023002600290047
S113013000000000250028002B000000000024001F
S113014027002A0000000000003E5B4F5B3E3E6B30
S11301504F6B3E1C3E7C3E1C183C7E3C181C577D5D
S1130160571C1C5E7F5E1C00183C1800FFE7C3E7A9
S1130170FF0018241800FFE7DBE7FF30483A060EBB
S11301802629792926407F050507407F05253F5A02
S11301903CE73C5A7F3E1C1C08081C1C3E7F142272
S11301A07F22145F5F005F5F06097F017F0066891D
S11301B0956A606060606094A2FFA29408047E0463
S11301C00810207E201008082A1C08081C2A080889
S11301D01E101010100C1E0C1E0C30383E38300649
S11301E00E3E0E06000000000000005F0000000745
S11301F0000700147F147F14242A7F2A1223130873
S1130200646236495620500008070300001C22414E
S1130210000041221C002A1C7F1C2A08083E0808F2
S113022000807030000808080808000060600020A2
S1130230100804023E5149453E00427F4000724985
S11302404949462141494D331814127F1027454529
S113025045393C4A4949314121110907364949493F
S113026036464949291E00001400000040340000AD
S11302700008142241141414141400412214080216
S1130280015909063E415D594E7C1211127C7F4989
S11302904949363E414141227F4141413E7F4949DE
S11302A049417F090909013E414151737F0808080A
S11302B07F00417F41002040413F017F08142241DB
S11302C07F404040407F021C027F7F0408107F3E35
S11302D04141413E7F090909063E4151215E7F09A2
S11302E0192946264949493203017F01033F404009
S11302F0403F1F2040201F3F4038403F63140814F4
S11303006303047804036159494D43007F4141412B
S11303100204081020004141417F0402010204400C
S113032040404040000307080020545478407F2890
S11303304444383844444428384444287F38545486
S1130340541800087E090218A4A49C787F080404A9
S11303507800447D40002040403D007F1028440048
S113036000417F40007C047804787C0804047838D9
S113037044444438FC1824241818242418FC7C0809
S1130380040408485454542404043F44243C404086
S1130390207C1C2040201C3C4030403C4428102839
S11303A0444C9090907C4464544C44000836410082
S11303B00000770000004136080002010204023CFC
S11303C02623263C1EA1A161123A4040207A3854CB
S11303D05455592155557941225454784221555444
S11303E0784020545579400C1E5272123955555597
S11303F059395454545939555454580000457C4182
S11304000002457D420001457C407D1211127DF0C1
S1130410282528F07C545545002054547C547C0AEB
S1130420097F4932494949323A4444443A324A48B4
S113043048303A4141217A3A42402078009DA0A0B8
S11304407D3D4242423D3D4040403D3C24FF24240A
S1130450487E4943662B2FFC2F2BFF0929F620C029
S1130460887E090320545479410000447D4130487A
S1130470484A32384040227A007A0A0A727D0D19BD
S1130480317D2629292F28262929292630484D401F
S113049020380808080808080808382F10C8ACBA1B
S11304A02F102834FA00007B000008142A1422229A
S11304B0142A14085500550055AA55AA55AAFF55E3
S11304C0FF55FF000000FF00101010FF001414146B
S11304D0FF001010FF00FF1010F010F0141414FCB3
S11304E0001414F700FF0000FF00FF1414F404FCD0
S11304F0141417101F10101F101F1414141F0010B1
S11305001010F0000000001F101010101F10101029
S113051010F010000000FF10101010101010101038
S1130520FF10000000FF140000FF00FF00001F1078
S1130530170000FC04F414141710171414F404F432
S11305400000FF00F714141414141414F700F71423
S11305501414171410101F101F141414F414101072
S1130560F010F000001F101F0000001F1400000016
S1130570FC140000F010F01010FF10FF141414FF0E
S1130580141010101F00000000F010FFFFFFFFFF09
S1130590F0F0F0F0F0FFFFFF0000000000FFFF0F9D
S11305A00F0F0F0F3844443844FC4A4A4A347E0241
S11305B0020606027E027E026355494163384444C2
S11305C03C04407E201E2006027E020299A5E7A577
S11305D0991C2A492A1C4C7201724C304A4D4D30E8
S11305E03048784830BC625A463D3E494949007E0D
S11305F00101017E2A2A2A2A2A44445F44444051A4
S11306004A444040444A51400000FF0103E080FF57
S1130610000008086B6B083612362436060F090FE3
S113062006000018180000001010003040FF0101FF
S1130630001F01011E00191D1712003C3C3C3C0028
S1130640000000002200FF2100000103070F1F3FEC
S11306507F0080C0E0F0F8FCFEDB40A4A62EAFDAF9
S11306600281DA1281DA02818F2000A1C8D300400E
S11306708DAED580A80000600000000000000000DE
S1130680000000000000E000000000000000000086
S11306900000000001E00000000000000000000075
S11306A000000001F0000000000000000000000055
S11306B0000003F000000000000000000000000043
S11306C00007F0000000000000000000000000002F
S11306D007F8000000000000000000000000000F08
S11306E0F800000003C0007E000001E0007F0FF866
S11306F000000003C000FE000001E000FFEFF8006E
S1130700000003C000FE000001E000FFFFF800004D
S11307100003C000F00000000F007FFE7FC0000057
S113072003C000F00000000F003FFE7FF83FF1FB24
S1130730CFFCFEF3BC3DEFE01FFE7FFF7FFBFFDF3E
S1130740FEFEFFBC3DEFE01FC6FFFF7FFBFFDFFEA9
S1130750FEFFBC3DEFE00FE3C7FE787BC3DE1EF077
S1130760FFBC3DEF0007FF87FC787BC3DE1EF0F87B
S11307703C3DEF0001FFFFF0007BC3C01EF0F03CE6
S11307803DEF0001F37FE03FFBC3CFFEF0F03C3DC3
S1130790EF0003E33F807FFBC3DFFEF0F03C3DEF5F
S11307A00007E73C00787BC3DE1EF0F03C3DEF0021
S11307B007FFBE00787BC3DE1EF0F03C3DEF000770
S11307C0FFFE00787BC3DE1EF0F03C3DEF000FFF20
S11307D0FE007FFBFFDFFEF0F03FFDEFE00FFFFFC9
S11307E0007FFBFFDFFEF0F03FFDEFE00FF9FF00BD
S11307F03E79F9CF9EF0F01F3DE7E01FF1FF0000C6
S1130800000000000000000000001F80FF007FFFC8
S1130810FFFFFFFFFFFFFFFFE01C007F007FFFFFE4
S1130820FFFEB46D888D18E000001F007FFFFFFFFE
S1130830FE95AD7DB577E000000F007FFFFFFFFE62
S1130840A5AD9D8D19E0000006007FFFFFFFFEB5FA
S1130850ADEDB57EE0000000000001800000000066
S11308600000000000038000000000000000000001
S113087007C000000000000000000007C0000000E6
S11308800000000000000FC0000000000000000095
S1130890001FE00000000000000000001FE0000056
S11308A0000000000000003FE00000000000000025
S11308B000003FF00000000000000000007FF00096
S11308C00000000000001FF87FF00000000000009E
S11308D0003FFE7FF0000000000000003FFF7FF0BB
S11308E0000000000000001FFFFBE000000000000B
S11308F000000FFFF9FFC00000000000000FFFF927
S1130900FFF800000000000007FFF1FFFF000000F7
S113091000000003FC73FFFF80000000000001FEE4
S11309203FFFFF80000000000000FF1E0FFF0000DB
S113093000000000007FFE1FFC000000000000001B
S11309403FFFFFF8000000000000000FDFFFE000A1
S11309500000000000001F19FFC00000000000009C
S1130960003F3CFF00000000000000007E7CF80017
S1130970000000000000007FFE7C0000000000007A
S11309800000FFFFFC0000000000000000FFFFFE6D
S11309900000000000000000FFFFFE000000000057
S11309A0000001FFEFFE0000000000000001FFCF87
S11309B0FE0000000000000003FF07FE000000002E
S11309C000000003FC07FE0000000000000003F02C
S11309D003FE00000000000000018000FE00000093
S11309E0000000000000007E000000000000000085
S11309F000003E000000000000000000000C0000A9
S1130A0000000000078000FC000003C00000000795
S1130A108001FC000003C0000000078001FC00000E
S1130A2003C0000000078001E00000001E00000079
S1130A30078001E00000001E007FE3F79FF9FDE757
S1130A40787BDFC0FFF7FFBFFDFDFF787BDFC0FFD2
S1130A50F7FFBFFDFDFF787BDFC0F0F787BC3DE10A
S1130A60FF787BDE00F0F787BC3DE1F0787BDE00A9
S1130A7000F787803DE1E0787BDE007FF7879FFD0C
S1130A80E1E0787BDE00FFF787BFFDE1E0787BDE05
S1130A9000F0F787BC3DE1E0787BDE00F0F787BC2F
S1130AA03DE1E0787BDE00F0F787BC3DE1E0787B58
S1130AB0DE00FFF7FFBFFDE1E07FFBDFC0FFF7FFD4
S1130AC0BFFDE1E07FFBDFC07CF3F39F3DE1E03E4F
S1130AD07BCFC00000000000000000000000FFFF0A
S1130AE0FFFFFFFFFFFFFFFFC0FFFFFFFFFD68DB0E
S1130AF0111A31C0FFFFFFFFFD2B5AFB6AEFC0FF45
S1130B00FFFFFFFD4B5B3B1A33C0FFFFFFFFFD6B95
S1130B105BDB6AFDC000B007520EFD1FC70711243E
S1130B201FBECFEFD8E0DEBFCDBF11E0A0E0B1E043
S1130B30E6EFFCE402C005900D92AC39B107D9F799
S1130B4023E0ACE9B1E001C01D92A73FB207E1F791
S1130B5015E0CEE8D5E004C02197FE010E945122A1
S1130B60CB38D107C9F70E94800E0C946E260C94E2
S1130B7000008CE3EEE9F1E0DF011D928A95E9F7CC
S1130B808EE1E6E1F2E0DF01982F1D929A95E9F7F4
S1130B90E8EFF1E0DF01982F1D929A95E9F7EAED6D
S1130BA0F1E0DF011D928A95E9F71092420210925A
S1130BB04302109244021092450210924102109294
S1130BC0400210929D0108950F9361E082E00E941B
S1130BD0CE1060E088E00E94CE1026E040E855E2A6
S1130BE060E070E085E892E00E94870D01E021E07A
S1130BF040E062E086E492E00E94571A811101C04D
S1130C00FFCF0F910C94B90588E00E9439114AE096
S1130C1050E0BC0185E892E00E94900F88E00E94B9
S1130C203911892B31F480919C018F5F80939C0151
S1130C3004C010929C01109206014AE050E06091B9
S1130C409C0185E892E00E94360F80919C018430DB
S1130C5010F060E001C061E082E00C940A114F9250
S1130C605F926F927F928F929F92AF92BF92CF9238
S1130C70DF92EF92FF920F931F9349015A0167018C
S1130C8078019B01AC010E94480A2B013C01A5019B
S1130C909401C501B4010E94480A9B01AC01C3013F
S1130CA0B2010E94A1084B015C01A7019601C70192
S1130CB0B6010E94480A9B01AC01C501B4010E941F
S1130CC0A1081F910F91FF90EF90DF90CF90BF90FC
S1130CD0AF909F908F907F906F905F904F900C9407
S1130CE00B0B4F925F926F927F928F929F92AF9273
S1130CF0BF92EF92FF920F931F93CF93DF93C09114
S1130D009D01D0E0CC0FDD1FFE01EA5EFD4F608146
S1130D107181072E000C880B990B0E94B7092AE0F9
S1130D2037ED43E250E40E940D0920E030E048E44E
S1130D3053E40E94A0084B015C0160933C02709351
S1130D403D0280933E0290933F02FE01E850FE4F25
S1130D5060817181072E000C880B990B0E94B709E2
S1130D602AE037ED43E250E40E940D0920E030E030
S1130D7048E453E40E94A0082B013C01609338022C
S1130D807093390280933A0290933B02C652DE4F2D
S1130D9068817981072E000C880B990B0E94B70992
S1130DA02AE037ED43E250E40E940D0920E030E0F0
S1130DB048E453E40E94A00860933402709335021F
S1130DC080933602909337027B018C01A301920138
S1130DD0C501B4010E942F06DF91CF911F910F919D
S1130DE0FF90EF90BF90AF909F908F907F906F9007
S1130DF05F904F900895CF93DF93C0919D01D0E011
S1130E008EE00E948810CC0FDD1FCA5EDD4F9983EF
S1130E108883C0919D01D0E08FE00E948810CC0FA0
S1130E20DD1FC850DE4F99838883C0919D01D0E0B7
S1130E3080E10E948810CC0FDD1FC652DE4F9983DB
S1130E408883C0919D01D0E00E947106CC0FDD1F04
S1130E50CC0FDD1FC256DE4F688379838A839B8360
S1130E6080919D018F5F6FE00E94FB2190939D0113
S1130E70DF91CF91089520E030E040E751E40E94F3
S1130E800D0920E030E040E250E40E94B50A20E081
S1130E9030E04AE754E40E940D0920E030E040E7E6
S1130EA051E40E94480A0895CF92DF92EF92FF9294
S1130EB0CF93DF9320E030E040E05FE360919E0158
S1130EC070919F018091A0019091A1010E94480A14
S1130ED06B017C0120E030E040E05FE36091D601EB
S1130EE07091D7018091D8019091D9010E94480A4C
S1130EF0A70196010E94A108C2EAD1E02991399183
S1130F00499159910E94A10821E0C63DD207B1F749
S1130F10DF91CF91FF90EF90DF90CF900895CF9223
S1130F20DF92EF92FF920E9454076B017C012091A3
S1130F3042023091430240914402509145020E9482
S1130F40430A181644F4C0924202D0924302E0923B
S1130F504402F0924502FF90EF90DF90CF90089505
S1130F60AF92CF92EF920F9385E0A82E93E0C92E13
S1130F7024E0E22E0DE02BE040E460E886E492E019
S1130F800E94C4180F91EF90CF90AF90089586E41B
S1130F9092E00C94EB18CF92DF92EF92FF920F93B2
S1130FA01F93CF93DF93CDB7DEB764970FB6F89452
S1130FB0DEBF0FBECDBF6B017C018E010F5F1F4FE3
S1130FC084E1F80111928A95E9F786E492E00E949F
S1130FD0391A63E086E492E00E94D21781E090E03F
S1130FE0909359028093580290935702809356022B
S1130FF085E090E0909353028093520289E190E05F
S1131000909355028093540281E080935E0220E025
S113101030E048EC52E4C701B6010E94480A0E943D
S11310207F09CB0164E670E00E9407229F938F93AF
S1131030C701B6010E947F097F936F9388E091E016
S11310409F938F931F930F930E9484230FB6F8945A
S1131050DEBF0FBECDBF7801F80101900020E9F793
S11310603197E01BF10BC701801B910B8E179F0773
S113107040F4F70161917F0186E492E00E94EF164B
S1131080EBCF86E492E00E94D31D64960FB6F894E9
S1131090DEBF0FBECDBFDF91CF911F910F91FF90A7
S11310A0EF90DF90CF90089580914002909141029B
S11310B001969093410280934002893E9340D4F07C
S11310C00E9404066091420270914302809144029E
S11310D0909145020E943B07609342027093430241
S11310E080934402909345020E94CB070E94B90565
S11310F080E008950E948F0781E00895CF92DF92E7
S1131100EF92FF920E94E10F6B017C010E94FB06AB
S11311100E945408813079F40E94E10F28E1C21A38
S11311202CEFD20AC601861B970BFF90EF90DF903D
S1131130CF900C944210FF90EF90DF90CF900895E1
S11311405058BB27AA270E94B8080C94090A0E9489
S1131150FB0938F00E94020A20F039F49F3F19F489
S113116026F40C94F8090EF4E095E7FB0C94F209CC
S1131170E92F0E941A0A58F3BA1762077307840703
S1131180950720F079F4A6F50C943C0A0EF4E0954A
S11311900B2EBA2FA02D0B01B90190010C01CA012D
S11311A0A0011124FF27591B99F0593F50F4503ED8
S11311B068F11A16F040A22F232F342F4427585FCA
S11311C0F3CF469537952795A795F0405395C9F7E2
S11311D07EF41F16BA0B620B730B840BBAF091509A
S11311E0A1F0FF0FBB1F661F771F881FC2F70EC039
S11311F0BA0F621F731F841F48F48795779567950C
S1131200B795F7959E3F08F0B0CF9395880F08F0F7
S11312109927EE0F9795879508950E9421090C94BC
S1131220090A0E94020A58F00E94FB0940F029F4BE
S11312305F3F29F00C94F20951110C943D0A0C946F
S1131240F8090E941A0A68F39923B1F3552391F31C
S1131250951B550BBB27AA2762177307840738F021
S11312609F5F5F4F220F331F441FAA1FA9F335D07E
S11312700E2E3AF0E0E832D091505040E695001C32
S1131280CAF72BD0FE2F29D0660F771F881FBB1FEC
S1131290261737074807AB07B0E809F0BB0B802DCA
S11312A0BF01FF2793585F4F3AF09E3F510578F0F6
S11312B00C94F2090C943D0A5F3FE4F3983ED4F396
S11312C0869577956795B795F7959F5FC9F7880FCA
S11312D0911D9695879597F90895E1E0660F771F1C
S11312E0881FBB1F621773078407BA0720F0621BAD
S11312F0730B840BBA0BEE1F88F7E09508950E94D8
S113130086096894B1110C943D0A08950E94220A3A
S113131088F09F5798F0B92F9927B751B0F0E1F0B2
S1131320660F771F881F991F1AF0BA95C9F714C062
S1131330B13091F00E943C0AB1E008950C943C0A4B
S1131340672F782F8827B85F39F0B93FCCF386959B
S113135077956795B395D9F73EF4909580957095F8
S113136061957F4F8F4F9F4F0895E89409C097FB75
S11313703EF490958095709561957F4F8F4F9F4F68
S11313809923A9F0F92F96E9BB279395F6958795AC
S113139077956795B795F111F8CFFAF4BB0F11F46F
S11313A060FF1BC06F5F7F4F8F4F9F4F16C0882316
S11313B011F096E911C0772321F09EE8872F762F4C
S11313C005C0662371F096E8862F70E060E02AF08D
S11313D09A95660F771F881FDAF7880F9695879579
S11313E097F9089597F99F6780E870E060E00895A1
S11313F09FEF80EC089500240A9416161706180629
S11314000906089500240A94121613061406050604
S11314100895092E0394000C11F4882352F0BB0F95
S113142040F4BF2B11F460FF04C06F5F7F4F8F4FF8
S11314309F4F089557FD9058440F551F59F05F3F33
S113144071F04795880F97FB991F61F09F3F79F0E2
S113145087950895121613061406551FF2CF469564
S1131460F1DF08C0161617061806991FF1CF8695E6
S11314707105610508940895E894BB2766277727CA
S1131480CB0197F908950E94850B08F48FEF089516
S11314900E945B0A0C94090A0E94FB0938F00E941E
S11314A0020A20F0952311F00C94F2090C94F80927
S11314B011240C943D0A0E941A0A70F3959FC1F3FB
S11314C0950F50E0551F629FF001729FBB27F00DEE
S11314D0B11D639FAA27F00DB11DAA1F649F662743
S11314E0B00DA11D661F829F2227B00DA11D621F92
S11314F0739FB00DA11D621F839FA00D611D221F4C
S1131500749F3327A00D611D231F849F600D211D2F
S1131510822F762F6A2F11249F5750409AF0F1F0B2
S113152088234AF0EE0FFF1FBB1F661F771F881F1B
S113153091505040A9F79E3F510580F00C94F20958
S11315400C943D0A5F3FE4F3983ED4F38695779577
S11315506795B795F795E7959F5FC1F7FE2B880FC1
S1131560911D9695879597F90895FA01EE0FFF1F3F
S1131570309621053105A1F16115710561F48038BA
S1131580BFE39B0749F168949038810561F0803886
S1131590BFEF9B0741F099234AF5FF3FE105310571
S11315A0210519F1E8940894E795D901AA2329F4AF
S11315B0AB2FBE2FF85FD0F310C0FF5F70F4A69579
S11315C0E0F7F73950F019F0FF3A38F49F779F931A
S11315D00DD00F9007FC9058089546F00C94F8092C
S11315E060E070E080E89FE308954FE79F775F93A2
S11315F04F933F932F930E942F0C2F913F914F9124
S11316005F910E94480A0C94530B19F416F40C943D
S1131610F8090C94A90B0E94220AB8F39923C9F380
S1131620B6F39F57550B87FF0E94B70B0024A0E623
S113163040EA900180585695979528F4805C660F8F
S1131640771F881F20F026173707480730F4621BDE
S1131650730B840B202931294A2BA69517940794E0
S1131660202531254A2758F7660F771F881F20F059
S113167026173707480730F4620B730B840B200DD1
S1131680311D411DA09581F7B901842F9158880F10
S113169096958795089529F416F00C94F2090C9404
S11316A03C0A0C94F8090E94220AA8F39638A0F781
S11316B007F80F92E8942BE33AEA48EB5FE70E94BD
S11316C05E0A0F920F920F924DB75EB70F920E946F
S11316D0770CE8E6F0E00E94BE0B4F915F91EF912A
S11316E0FF91E595EE1FFF1F49F0FE57E068442780
S11316F0EE0F441FFA95E1F74195550B0E94F10B4B
S11317000F9007FE0C94E50B0895990F0008550FF0
S1131710AA0BE0E8FEEF16161706E807F907C0F073
S113172012161306E407F50798F0621B730B840B7B
S1131730950B39F40A2661F0232B242B252B21F455
S113174008950A2609F4A140A6958FEF811D811DF5
S113175008959F3F31F0915020F4879577956795D0
S1131760B795880F911D9695879597F9089591508F
S11317705040660F771F881FD2F70895DF93CF93E9
S11317801F930F93FF92EF92DF927B018C01689479
S113179006C0DA2EEF010E945B0AFE01E894A591CF
S11317A02591359145915591A6F3EF010E94B80812
S11317B0FE019701A801DA9469F7DF90EF90FF909A
S11317C00F911F91CF91DF9108959B01AC0160E0CF
S11317D070E080E89FE30C940D090C94F2090C94DA
S11317E0A90B0E94220AD8F39923C9F3940F511D1F
S11317F0A3F39150504094F059F0882332F0660FCF
S1131800771F881F91505040C1F79E3F51052CF718
S1131810880F911D9695879597F908955F3FACF0D1
S1131820983E9CF0BB27869577956795B79508F405
S1131830B1609395C1F7BB0F58F711F460FFE8CF7F
S11318406F5F7F4F8F4F9F4FE3CF0C943D0A16F08D
S11318500C94A90B0C94F80968940C94F2090E9456
S1131860220AA8F39923C1F3AEF3DF93CF931F9316
S11318700F93FF92C92FDD2788232AF02197660F43
S1131880771F881FDAF720E030E040E85FEB9FE342
S1131890883920F0803E38F021968F770E94A10885
S11318A0E0E9F0E004C00E94A108EDEBF0E00E9442
S11318B0BE0B8B01BE01EC01FB2E6F5771097595B0
S11318C0771F880B990B0E94B70928E132E741E39F
S11318D05FE30E945B0AAF2D9801AE01FF900F9168
S11318E01F91CF91DF910E94B8080C94090AFA0164
S11318F0DC01AA0FBB1F9B01AC01BF5728F42227B0
S113190033274427507820C0B75190F4AB2F0024DC
S1131910469537952795011CA395D2F3002071F0C5
S1131920220F331F441FB395DAF30ED00C94A00892
S113193061307105A0E88A07B94630F49B01AC0117
S11319406627772788279078309621F02083318383
S1131950428353830895FC01918D228D892F90E059
S1131960805C9F4F821B91098F7399270895FC0116
S1131970918D828D981731F0828DE80FF11D858D40
S113198090E008958FEF9FEF0895FC01918D828D73
S1131990981761F0828DDF01A80FB11D5D968C91BF
S11319A0928D9F5F9F73928F90E008958FEF9FEFCA
S11319B00895FC01538D448D252F30E0842F90E051
S11319C0821B930B541710F0CF9608950197089536
S11319D088E49EE0892B49F080E090E0892B29F08F
S11319E00E94480E81110C9400000895FC01848D1E
S11319F0DF01A80FB11DA35ABF4F2C91848D90E035
S1131A0001968F739927848FA689B7892C93A0890F
S1131A10B1898C91837080648C93938D848D981399
S1131A2006C00288F389E02D80818F7D808308952C
S1131A30EF92FF920F931F93CF93DF93EC0181E01A
S1131A40888F9B8D8C8D981305C0E889F9898081D6
S1131A5085FD26C0F62E0B8D10E00F5F1F4F0F7310
S1131A601127E02E8C8DE8120CC00FB607FCFACFBC
S1131A70E889F989808185FFF5CFCE010E94F60CB3
S1131A80F1CF8B8DFE01E80FF11DE35AFF4FF08279
S1131A909FB7F8940B8FEA89FB89808180620AC022
S1131AA09FB7F894EE89FF896083E889F98980817A
S1131AB08370806480839FBF81E090E0DF91CF9149
S1131AC01F910F91FF90EF900895CF93DF93EC0156
S1131AD0888D8823C9F0EA89FB89808185FD05C04A
S1131AE0A889B9898C9186FD0FC00FB607FCF5CF84
S1131AF0808185FFF2CFA889B9898C9185FFEDCFCC
S1131B00CE010E94F60CE7CFDF91CF910895CF92DA
S1131B10DF92EF92FF921F93CF93DF93EC016A0160
S1131B207B01122FE889F98982E080834115514EA7
S1131B3061057105B1F060E079E08DE390E0A70103
S1131B4096010E941B22DA01C9010197A109B1097A
S1131B50B695A795979587959C01211580E138073F
S1131B60A8F0E889F989108260E874E88EE190E0D1
S1131B70A70196010E941B22DA01C9010197A1095C
S1131B80B109B695A795979587959C01EC85FD8538
S1131B903083EE85FF852083188EEC89FD891083C0
S1131BA0EA89FB89808180618083EA89FB8980815D
S1131BB088608083EA89FB89808180688083EA89E0
S1131BC0FB8980818F7D8083DF91CF911F91FF906E
S1131BD0EF90DF90CF90089580E090E0089508950D
S1131BE01F920F920FB60F9211242F938F939F93EE
S1131BF0EF93FF93E0919502F09196028081E0913A
S1131C009B02F0919C0282FD12C0908180919E0201
S1131C108F5F8F7320919F02821751F0E0919E0293
S1131C20F0E0EB57FD4F958F80939E0201C08081B9
S1131C30FF91EF919F918F912F910F900FBE0F9075
S1131C401F9018951F920F920FB60F9211242F9385
S1131C503F934F935F936F937F938F939F93AF9330
S1131C60BF93EF93FF9385E892E00E94F60CFF91F7
S1131C70EF91BF91AF919F918F917F916F915F9100
S1131C804F913F912F910F900FBE0F901F90189579
S1131C9085E892E00E94AB0C21E0892B09F420E056
S1131CA0822F0895E5E8F2E01382128288EE93E031
S1131CB0A0E0B0E084839583A683B78384E191E0B8
S1131CC09183808385EC90E09587848784EC90E011
S1131CD09787868780EC90E0918B808B81EC90E0F5
S1131CE0938B828B82EC90E0958B848B86EC90E0D6
S1131CF0978B868B118E128E138E148E08950895F1
S1131D000E944D100E947F0E0E94E405C8EEDCE0A4
S1131D100E947E082097E1F30E94E80CF9CFCF924D
S1131D20DF92EF92FF920F931F93CF93DF936C0197
S1131D307A018B01C0E0D0E0CE15DF0581F0D80137
S1131D406D918D01D601ED91FC910190F081E02D12
S1131D50C6010995892B11F02196EECF7E01C701AA
S1131D60DF91CF911F910F91FF90EF90DF90CF9073
S1131D7008956115710579F0FB0101900020E9F7E0
S1131D803197AF01461B570BDC01ED91FC910280AA
S1131D90F381E02D099480E090E00895DC01ED9159
S1131DA0FC910190F081E02D099462E271E00C94C1
S1131DB0B90E8F929F92AF92BF92EF92FF920F93C0
S1131DC01F93CF93DF93CDB7DEB7A1970FB6F894E7
S1131DD0DEBF0FBECDBF7C01FA01CB0119A22230B8
S1131DE008F42AE08E010F5D1F4F822E912CA12C46
S1131DF0B12CBF01A50194010E941B22F901CA0163
S1131E00015011096A3010F4605D01C0695CD801A9
S1131E106C93232B242B252B61F7B801C7010E9457
S1131E20B90EA1960FB6F894DEBF0FBECDBFDF91F9
S1131E30CF911F910F91FF90EF90BF90AF909F9023
S1131E408F9008952115310541F4DC01ED91FC9149
S1131E500190F081E02D642F09940C94D90E9A011D
S1131E60462F50E060E070E00C94220F0F931F9314
S1131E70CF93DF93EC010E942F0F8C01CE010E94BF
S1131E80D50E800F911FDF91CF911F910F9108956F
S1131E90CF92DF92EF92FF920F931F93CF93DF9332
S1131EA02115310581F4DC01ED91FC910190F08163
S1131EB0E02D642FDF91CF911F910F91FF90EF9050
S1131EC0DF90CF9009942A30310501F577FF1DC0CA
S1131ED06A017B01EC016DE20E94CE0E8C01442765
S1131EE05527BA014C195D096E097F092AE0CE0114
S1131EF00E94D90E800F911FDF91CF911F910F91F6
S1131F00FF90EF90DF90CF9008952AE0DF91CF917A
S1131F101F910F91FF90EF90DF90CF900C94D90E0A
S1131F209A01AB01770F660B770B0C94480F1F9245
S1131F300F920FB60F9211242F933F938F939F9379
S1131F40AF93BF938091230390912403A091250321
S1131F50B09126033091220323E0230F2D3720F480
S1131F600196A11DB11D05C026E8230F0296A11DEF
S1131F70B11D209322038093230390932403A09301
S1131F802503B09326038091270390912803A09101
S1131F902903B0912A030196A11DB11D8093270343
S1131FA090932803A0932903B0932A03BF91AF9180
S1131FB09F918F913F912F910F900FBE0F901F9083
S1131FC018953FB7F8948091270390912803A09126
S1131FD02903B0912A0326B5A89B05C02F3F19F009
S1131FE00196A11DB11D3FBFBA2FA92F982F882795
S1131FF0820F911DA11DB11DBC01CD0142E0660FF0
S1132000771F881F991F4A95D1F708958F929F9241
S1132010AF92BF92CF92DF92EF92FF926B017C015D
S11320200E94E10F4B015C01C114D104E104F104ED
S113203001F10E9403200E94E10FDC01CB01881909
S11320409909AA09BB09883E9340A105B10560F32B
S113205021E0C21AD108E108F10888EE880E83E075
S1132060981EA11CB11CC114D104E104F10419F798
S1132070DBCFFF90EF90DF90CF90BF90AF909F9019
S11320808F9008958230910538F0880F991F880F3A
S1132090991F05970197F1F70895789484B58260A4
S11320A084BD84B5816084BD85B5826085BD85B5F8
S11320B0816085BDEEE6F0E0808181608083E1E8A7
S11320C0F0E01082808182608083808181608083DF
S11320D0E0E8F0E0808181608083E1EBF0E08081E2
S11320E084608083E0EBF0E0808181608083EAE7B4
S11320F0F0E080818460808380818260808380813D
S1132100816080838081806880831092C1000895FB
S11321108E3008F08E502091070190E4299F9001A1
S113212011248770822B80937C0080917A008064D4
S113213080937A0080917A0086FDFCCF80917800AC
S11321402091790090E0922B0895833081F028F457
S1132150813099F08230A1F008958730A9F0883059
S1132160B9F08430D1F4809180008F7D03C08091D8
S113217080008F7780938000089584B58F7702C0A4
S113218084B58F7D84BD08958091B0008F7703C09E
S11321908091B0008F7D8093B0000895CF93DF933A
S11321A090E0FC01E250FF4F2491FC01EE5EFE4FF3
S11321B08491882361F190E0880F991FFC01E65C0B
S11321C0FE4FC591D491FC01E05DFE4FA591B49101
S11321D0611109C09FB7F894888120958223888370
S11321E0EC912E230BC0623061F49FB7F894888180
S11321F0322F309583238883EC912E2B2C939FBF11
S113220006C08FB7F894E8812E2B28838FBFDF9107
S1132210CF9108951F93CF93DF93282F30E0F901D6
S1132220E651FF4F8491F901E250FF4FD491F90137
S1132230EE5EFE4FC491CC23C1F0162F81110E9493
S1132240A510EC2FF0E0EE0FFF1FE05DFE4FA5910F
S1132250B4919FB7F894111104C08C91D095D823F0
S113226002C0EC91DE2BDC939FBFDF91CF911F91D5
S11322700895CF93DF93282F30E0F901E651FF4F03
S11322808491F901E250FF4FD491F901EE5EFE4FC3
S1132290C491CC2391F081110E94A510EC2FF0E0A1
S11322A0EE0FFF1FEA5DFE4FA591B491EC91ED2373
S11322B081E090E021F480E002C080E090E0DF91D2
S11322C0CF9108952F923F924F925F926F927F9297
S11322D08F929F92AF92BF92CF92DF92EF92FF9232
S11322E00F931F93CF93DF9300D000D000D0CDB7CE
S11322F0DEB72C017E836D836A015901C801FC821B
S1132300EB824801841A950A97FE03C09194819444
S1132310910835012D813E81621A730A77FE03C04C
S1132320719461947108681479045CF43A2D2B2D2E
S11323305C01832F922F3D812E81DE82CD82C32EBC
S1132340D22EAD81BE81AA16BB065CF43C2D2D2D88
S11323506C01832F922F3D812E81BE82AD82A32EEC
S1132360B22E85012D813E81021B130B1C012C18FA
S11323703D0837FE03C0319421943108780117FFDA
S113238003C03FEFE31AF30AF594E794C816D9069D
S11323902CF08FEF9FEF9A83898304C0A1E0B0E013
S11323A0BA83A9832D813E81A216B30624F1D201FA
S11323B0ED91FC910484F585E02D2B813C8168141A
S11323C0790424F44D815E81B60103C0A6016D81B8
S11323D07E81C2010995E218F308F7FE06C029813F
S11323E03A81C20ED31EE00EF11E8D819E810196AC
S11323F09E838D83D7CF26960FB6F894DEBF0FBE8B
S1132400CDBFDF91CF911F910F91FF90EF90DF909F
S1132410CF90BF90AF909F908F907F906F905F9080
S11324204F903F902F900895DC01ED91FC91008432
S1132430F185E02D09940F931F93DC01ED91FC913C
S1132440048CF58DE02D09951F910F9108950F933C
S11324501F93DC01ED91FC91068CF78DE02D09951D
S11324601F910F910895EF92FF920F931F93DC0138
S1132470ED91FC9100A0F1A1E02D09951F910F9120
S1132480FF90EF90089508958F929F92AF92BF921C
S1132490CF92DF92EF92FF920F931F93CF93DF932C
S11324A0EC015B014A0169017801E881F981028448
S11324B0F385E02D0995C80CD91C8601015011093A
S11324C0E881F9810488F589E02D9501A401B5011D
S11324D0CE010995E881F9810688F789E02DCE01BE
S11324E0DF91CF911F910F91FF90EF90DF90CF90EC
S11324F0BF90AF909F908F9009948F929F92AF92CC
S1132500BF92CF92DF92EF92FF920F931F93CF93DC
S1132510DF93EC015B014A016901E881F9810284DE
S1132520F385E02D099595012C0D3D1D21503109B0
S1132530E881F9810488F589E02D78018401A401FA
S1132540B501CE010995E881F9810688F789E02D66
S1132550CE01DF91CF911F910F91FF90EF90DF900B
S1132560CF90BF90AF909F908F9009944F925F92BD
S11325706F927F928F929F92AF92BF92CF92DF928F
S1132580EF92FF920F931F93CF93DF936C012B0174
S11325905A0139014801DC01ED91FC910284F38573
S11325A0E02D0995E201640C751CD601ED91FC91B6
S11325B0C615D7055CF40088F189E02D87019401E4
S11325C0A501BE01C60109952196EFCF0688F789BA
S11325D0E02DC601DF91CF911F910F91FF90EF90F5
S11325E0DF90CF90BF90AF909F908F907F906F902F
S11325F05F904F900994EF92FF920F931F93DC0129
S11326001A960D911C911B9718962D913C91199730
S1132610ED91FC9100A0F1A1E02D7B0140E050E0A0
S113262060E070E009951F910F91FF90EF9008957D
S11326308F929F92AF92BF92CF92DF92EF92FF92CE
S11326400F931F93CF93DF934C016B015A01E90160
S1132650DC01ED91FC916217730781F404171507EF
S113266024F48B2D5801042F182F0A191B099801E3
S11326702F5F3F4F048CF58DE02D12C0401751079A
S113268009F52617370724F48D2D6901C62FD82F95
S11326909E012C193D092F5F3F4F068CF78DE02DCD
S11326A08701A501B601C4010995DF91CF911F915E
S11326B00F91FF90EF90DF90CF90BF90AF909F90DD
S11326C08F9008950284F385E02D0995D401ED914E
S11326D0FC910488F589E02D9E01A501B601C40191
S11326E00995D401ED91FC910688F789E02DC40188
S11326F0DF91CF911F910F91FF90EF90DF90CF90DA
S1132700BF90AF909F908F9009946F927F928F9219
S11327109F92AF92BF92CF92DF92EF92FF920F936C
S11327201F93CF93DF93EC014B015A0169013801E8
S1132730E881F9810284F385E02D0995E881F98126
S11327400288F389E02D87019601A501B401CE0129
S11327500995A501460D571D41505109E881F9819C
S11327600288F389E02D9601B401CE010995E88130
S1132770F9810088F189E02D9301A501B401CE010E
S11327800995C80CD91CB60161507109E881F98119
S11327900088F189E02D9301A501CE010995E88116
S11327A0F9810688F789E02DCE01DF91CF911F9141
S11327B00F91FF90EF90DF90CF90BF90AF909F90DC
S11327C08F907F906F9009940895FC016370668BDD
S11327D08481958126813781613039F0633029F015
S11327E0918780873387228708953187208793874D
S11327F082870895FC011382128285E391E091831C
S11328008083758364835783468371876087538786
S11328104287168A158614861786168681E0858B6C
S1132820848B2FEF3FEF338B228B318B208B878B65
S1132830108E128E118E08953F924F925F926F9276
S11328407F928F929F92AF92BF92CF92DF92EF923C
S1132850FF920F931F93CF93DF93CDB7DEB72A97E1
S11328600FB6F894DEBF0FBECDBF5C017E836D83CF
S113287058874F8329013701DC01ED91FC910284D3
S1132880F385E02D0995C801079697FD07969C01ED
S113289093E0359527959A95E1F73A832983812C1E
S11328A0912CE12CF12C312C8F8198858E0D9F1D5C
S11328B09C838B83E614F7040CF03DC01A861986BA
S11328C0A985BA85A017B10774F5CD01877099273A
S11328D0892B11F0330C0EC0E985FA85F7FD379684
S11328E083E0F595E7958A95E1F7E80DF91DE40D88
S11328F0F51D349037FE11C0D501ED91FC9104848F
S1132900F585E02D96014B815C816D817E81898501
S11329109A85680F791FC5010995A985BA8511960D
S1132920BA87A987CDCFBFEFEB1AFB0A29813A8179
S1132930820E931EB9CFD501ED91FC910688F789DB
S1132940E02DC5012A960FB6F894DEBF0FBECDBFA9
S1132950DF91CF911F910F91FF90EF90DF90CF9077
S1132960BF90AF909F908F907F906F905F904F90AB
S11329703F9009942F923F924F925F926F927F9271
S11329808F929F92AF92BF92CF92DF92EF92FF927B
S11329900F931F93CF93DF93CDB7DEB76B970FB62B
S11329A0F894DEBF0FBECDBF9B8F8A8F2B015A8355
S11329B04983D22E198708874701AB82DC015996D7
S11329C02D913C915A972115310509F000C11896B3
S11329D08D919C911997681779070CF0E7C11A96A5
S11329E08D919C911B97481759070CF0DFC12C2C33
S11329F0312CFB0126E0C29EE00DF11D1124FD8760
S1132A00EC871E161F060CF0D1C14A2D50E05B87DF
S1132A104A8783E0440F551F8A95E1F75F874E8705
S1132A2089819A81840F951F181619060CF0BEC16E
S1132A3058968C91811104C06FEA6D1508F4D394F3
S1132A40AA8DBB8DED91FC9111970284F385E02D45
S1132A50CD010995B5E0DB9EC0011124EC2DF0E019
S1132A60F98BE88B92012B5F3F4F3B8B2A8B320112
S1132A705D824C82AC01441955095D8B4C8B7B8182
S1132A80672F70E07F8B6E8B89819A810896998F6E
S1132A90888FEC89FD89E60DF71DEC5BFE4FD49021
S1132AA0A981BA81BF83AE835D01D0FE16C0AA8D11
S1132AB0BB8DED91FC91B1E0CB1209C02B8121308B
S1132AC031F40484F585E02D2885398519C0068400
S1132AD0F785E02DE884F9841DC04885598548159B
S1132AE0590511F1AA8DBB8DED91FC91B1E0CB128A
S1132AF00DC02B81213051F40484F585E02D94011F
S1132B00A501B3018A8D9B8D09950EC00684F785B6
S1132B10E02D74010A851B8591014E815F816C81D2
S1132B207D818A8D9B8D0995D6944E815F816E89B6
S1132B307F89460F571F5F834E837FEFA71AB70A1B
S1132B40888D998DA816B90609F0AFCFAC81BD81E7
S1132B50E889F989AE0FBF1FBD83AC83FFEF6F1AFD
S1132B607F0A2A893B896216730609F092CF488549
S1132B7059854815590509F4F7C0AA8DBB8DED9107
S1132B80FC91B1E0CB1212C02B81213079F4B20157
S1132B906B5F7F4F0088F189E02D840128E030E0ED
S1132BA049815A818A8D9B8D0995DEC06C857D850E
S1132BB0621973090684F785E02D74010E851F855B
S1132BC0910149815A818A8D9B8D0995CDC0F90166
S1132BD03496E491DE1AF901329685919491B7E026
S1132BE0DB9E800D911D1124F90125913491398BBF
S1132BF0288BFC0125903490FC0132967490319618
S1132C00A490329694903196B49031E03C1518F02B
S1132C104B81423068F0692D092C000C770B7D83C1
S1132C206C838B2D0B2C000C990B9F838E8304C01B
S1132C301F821E821D821C82AA8DBB8DED91FC9188
S1132C4011970284F385E02DCD010995612CD12CD7
S1132C50812CFB81EF2FF0E0FB87EA872C2D30E0FD
S1132C603D872C8749815A814B0D511DB7FC5A95DC
S1132C705D8B4C8BB201690D711D97FC7A957F8B2E
S1132C806E8B8A1408F070C0282D30E04E815F816D
S1132C90420F531FAA85BB85A49FC001A59F900D19
S1132CA0B49F900D1124E981FA81E80FF91FFF8781
S1132CB0EE87862D912C4C895D89420F531F5B8BC7
S1132CC04A8B971408F04DC0BB24B394B80E877098
S1132CD041F4C1010196E889F989E20DF31DD4900C
S1132CE01C01D7FE3AC051E0C51216C06B81613099
S1132CF099F4AA8DBB8DED91FC9111970484F5850F
S1132D00E02D288539854A895B896E897F89690D1B
S1132D10711DCD01099521C08C819D81890D911D65
S1132D20EC85FD858E9FB0018F9F700D9E9F700D69
S1132D301124640D751DAA8DBB8DED91FC91119725
S1132D400684F785E02DE884F9840A851B852C85A3
S1132D503D854E855F85CD010995DD0C93948B2DC2
S1132D60B0CF670C83948DCFAA8DBB8DED91FC9170
S1132D7011970688F789E02DCD016B960FB6F8946C
S1132D80DEBF0FBECDBFDF91CF911F910F91FF909A
S1132D90EF90DF90CF90BF90AF909F908F907F90F7
S1132DA06F905F904F903F902F9009946B960FB661
S1132DB0F894DEBF0FBECDBFDF91CF911F910F916D
S1132DC0FF90EF90DF90CF90BF90AF909F908F9047
S1132DD07F906F905F904F903F902F9008958F92C7
S1132DE09F92AF92CF92EF92FF920F931F93CF9344
S1132DF0DF93EC01262F898D9A8D009709F042C04C
S1132E006A3059F41D861C862D898E859F8538E08D
S1132E10239F800D911D112443C06D3009F4AAC075
S1132E208F898823C9F03C898C859D8546E0349F31
S1132E30800D911D1124488559854817590764F45C
S1132E401D861C863D898E859F8548E0349F800DB4
S1132E50911D11249F878E87EA88FB880889198928
S1132E604E855F856C857D85AD88CC88CE010E94BA
S1132E70BA142C898C859D8536E0239F800D911D85
S1132E8011243EC06A3079F41D861C862D89FC010C
S1132E903696E4918E859F852E9F800D911D112479
S1132EA09F878E8767C06D3009F464C0FC01349637
S1132EB03491631708F45EC03196E491E61708F480
S1132EC059C0462F431B342FFC01329685909490B1
S1132ED047E0349F800C911C1124F4013296349104
S1132EE03196E491332311F0E1110DC0F4013496CD
S1132EF0E4912C898C859D85E29F800D911D112480
S1132F009D878C8737C0F401359644915F8955239A
S1132F1019F15C89E32FF0E0E40FF11D47FDFA9508
S1132F205E9FB0015F9F700D11244C855D85460F37
S1132F30571F688579856417750774F41D861C8688
S1132F403D89FC013696E4918E859F853E9F800DD8
S1132F50911D11249F878E87EA88FB880889198927
S1132F604E855F856C857D85AD88CC88CE010E94B9
S1132F70BA14BCCF81E090E0DF91CF911F910F9103
S1132F80FF90EF90CF90AF909F908F900895611134
S1132F9001C061E0FC01648B411101C041E0FC010E
S1132FA0458B0895462F0C94C717FC0177FDB9C0D3
S1132FB080859185681779070CF0B3C057FDB1C0BF
S1132FC082859385481759070CF0089586898230C5
S1132FD079F484819581DC01A61BB70BBD01615096
S1132FE0710986819781DC01A41BB50BAD010EC06C
S1132FF0833009F084C064277527CA018627972780
S11330006827792746815781481B590B415051093C
S11330102130310531F048F12230310509F44AC03C
S11330200895CA0157FD07969C01A3E0359527959D
S1133030AA95E1F7A481B5812A9FC0012B9F900D29
S11330403A9F900D1124680F791F078CF0A1E02D91
S1133050E60FF71F4770552781E090E001C0880F05
S11330604A95EAF79081892B48C0CA0157FD079613
S11330709C0193E0359527959A95E1F7A481B58154
S11330802A9FC0012B9F900D3A9F900D1124680F29
S1133090791F078CF0A1E02DE60FF71F4770552725
S11330A081E090E001C0880F4A95EAF7809590810D
S11330B0892323C0CA0157FD07969C0183E03595F7
S11330C027958A95E1F7A481B5812A9FC0012B9F9A
S11330D0900D3A9F900D1124680F791F078CF0A171
S11330E0E02DE60FF71F4770552781E090E001C0FF
S11330F0880F4A95EAF79081892780830895813063
S113310009F086CF64277527462757276427752734
S113311084819581DC01A61BB70BBD016150710947
S113312077CF089520912D03222399F04FB7F89477
S113313020912D03213059F42DB320932B033DB35B
S113314020912C03209523232DBB4FBF02C0409315
S11331502B038CBD9DBD08958EBD00000DB407FEEC
S1133160FDCF8EB5089580912D03882361F09FB71C
S1133170F89420912D0380912B03213019F48DBBF9
S11331809FBF08958FBF0895AF92CF92EF920F9390
S11331901F93CF93DF93EC01122F50E070E00E9455
S11331A0FA1381E691E0998388831C8E1B8E1E8E10
S11331B01D8E18A21F8E1CA30DA3EEA2AFA2C8A63B
S11331C080E58DAB1EAADF91CF911F910F91EF90F7
S11331D0CF90AF90089521E631E0FC013183208344
S11331E0878D90A1009711F00C94EF2208951F93FE
S11331F0CF93DF93FC01858D968D009719F1162FDF
S1133200EF0161A1062E000C770B0E94E51F8D8D46
S11332109E8DDC01ED91FC910190F081E02D60E048
S113322009958D8D9E8DDC01ED91FC910190F081CD
S1133230E02D612F09958D8D9E8DDF91CF911F918A
S11332400C94FA1FA5A5B6A59C9183A98095892302
S11332508C93838D948D892B31F0862FDF91CF91C0
S11332601F910C94AC1828E030E080E8A1A5B2A529
S113327091A9462F482319F04C91942B03C04C91EB
S1133280909594239C93A3A5B4A54C9192A9942BB7
S11332909C93A3A5B4A54C9192A9909594239C9337
S11332A086952150310911F7DF91CF911F9108952F
S11332B01F93CF93DF93EC01162F8D8D9E8D009776
S11332C039F04FA958AD69AD7AAD0E94D71F0FC030
S11332D08B8D9C8D892B21F08DA99EA90E9492181B
S11332E0EFA5F8A990818CA9809589238083111179
S11332F002C066EA01C067EACE010E94F7188D8D0C
S11333009E8D009749F04BAD5CAD6DAD7EADDF9108
S1133310CF911F910C94D71FEFA5F8A990818CA988
S1133320892B80838B8D9C8D892B29F0DF91CF9104
S11333301F910C94B318DF91CF911F910895DF92E0
S1133340EF92FF920F931F93CF93DF93EC01D62E4E
S1133350072F142F8D8D9E8D009709F448C069A105
S1133360062E000C770B0E94E51F8D8D9E8DDC01CF
S1133370ED91FC910190F081E02D60E00995ED2C38
S1133380F02E01E08D8D9E8D112341F10032A8F0C5
S11333900E94FA1F69A1062E000C770B8D8D9E8D5D
S11333A00E94E51F8D8D9E8DDC01ED91FC910190B5
S11333B0F081E02D60E0099501E08D8D9E8DF7018F
S11333C06491DC01ED91FC910190F081E02D09956F
S11333D00F5F1150F70131967F01D4CFDF91CF9168
S11333E01F910F91FF90EF90DF900C94FA1FEDA5C1
S11333F0FEA590818BA9809589238083E62EF72EE4
S1133400112379F1F70184912B8D3C8D232B39F015
S11334100E94AC181150C70101967C01F1CF28E03D
S113342030E040E8E9A5FAA599A9582F542319F0EA
S11334305081952B03C05081909595239083EBA5E3
S1133440FCA550819AA9952B9083EBA5FCA55081EE
S11334509AA990959523908346952150310911F7A7
S1133460D9CFDF91CF911F910F91FF90EF90DF9013
S11334700895FC01868197819C01295F3F4F37FFA6
S113348002C0295F3F4F83E0359527958A95E1F780
S113349084819581289FA001299F500D389F500D4C
S11334A0112460E070E0878D90A10C947D238F92AD
S11334B09F92AF92BF92CF92DF92EF92FF920F93BF
S11334C01F93CF93DF93EC01862EB42EA22E902E61
S11334D08F8D98A1892BE9F42E813F81C90107962C
S11334E097FD079623E0959587952A95E1F72C811A
S11334F03D81AC01429FC001439F900D529F900DAE
S113350011240E94572298A38F8F892B11F480E0F5
S113351095C1CE010E94391A8E819F816C817D8173
S113352081329105E4F0AC014054510957FF02C0C7
S11335304F5F5F4F559547956255710977FF02C0FC
S11335406F5F7F4F75956795CC24C394D12C80E42D
S1133550E82EF12C02E510E025E538E01BC0AC01B3
S11335604052510957FF02C04F5F5F4F5595479531
S11335706357710977FF02C06F5F7F4F7595679539
S1133580CC24C394D12CA0E2EA2EF12C03E710E062
S113359025E736E0CE010E941C148AA28D8D9E8DF3
S11335A0009799F0B11007C02E813F812032310578
S11335B021F42CE303C02B2D01C02DE329A3992072
S11335C009F439C10E94C51F79C061E08EA10E942F
S11335D0CE1061E08FA10E94CE108EA1082E000CA7
S11335E0990BFC01EE5EFE4FE491F0E0EE0FFF1F3D
S11335F0E05DFE4F259134913EA72DA7FC01E250DA
S1133600FF4FE491EBAB8FA1082E000C990BFC014A
S1133610EE5EFE4FE491F0E0EE0FFF1FE05DFE4F23
S1133620A591B491B8ABAFA7FC01E250FF4FE49170
S1133630ECAB8C91E82BEC938B8D9C8D892B31F02A
S1133640992009F43BC00E94C11E38C061E08CA1DE
S11336500E94CE1061E08DA10E94CE108CA1082E94
S1133660000C990BFC01EE5EFE4FE491F0E0EE0FCE
S1133670FF1FE05DFE4F259134913AA729A7FC0175
S1133680E250FF4FE491E9AB8DA1082E000C990B99
S1133690FC01EE5EFE4FE491F0E0EE0FFF1FE05DF3
S11336A0FE4FA591B491BCA7ABA7FC01E250FF4F1C
S11336B0E491EAAB8C91E095E823EC93AA20F1F035
S11336C088A587FD1BC061E00E94CE1061E088A53B
S11336D00E940A1161E070E080E090E00E94061010
S11336E060E088A50E940A116AE070E080E090E042
S11336F00E94061061E088A50E940A118D8D9E8D9E
S1133700009739F04FA958AD69AD7AAD0E94D71F23
S11337100FC08B8D9C8D892B21F08DA99EA90E94B1
S11337209218EFA5F8A990818CA9809589238083AC
S113373044E061E776E0CE010E949F196E816150FA
S1133740CE010E94F71844E06DE676E0CE010E94B7
S11337509F198AA1813011F460E101C064E1CE01B6
S11337600E94F71844E069E676E0CE010E949F19B2
S11337708C819D8180389105E1F48E819F81803216
S1133780910539F444E065E676E0CE010E949F1984
S113379026C08034910519F543E062E676E0CE0157
S11337A00E949F198AA1813011F46FE915C06FEC52
S11337B013C08036910599F48E819F81409779F4E6
S11337C043E06FE576E0CE010E949F198AA1813023
S11337D011F460E101C06FEACE010E94F71869EDAF
S11337E0CE010E94F7188AA1813011F462E201C06F
S11337F061EFCE010E94F71846E069E576E0CE015C
S11338000E949F198D8D9E8D009739F04BAD5CAD54
S11338106DAD7EAD0E94D71F0CC0EFA5F8A99081B5
S11338208CA9892B80838B8D9C8D892B11F00E9410
S1133830B31881E003C0A11043CF64CFDF91CF91CF
S11338401F910F91FF90EF90DF90CF90BF90AF90BA
S11338509F908F9008950F931F93CF93DF93DC0174
S113386057FD64C016968D919C9117974817590778
S11338700CF05CC077FF04C0260F371F60E070E0D7
S11338801496CD91DC911597CB01820F931FC81725
S1133890D9071CF49E01261B370B121613060CF0D5
S11338A045C0FA0157FD3796CF01E3E0959587951A
S11338B0EA95E1F78C9FF0018D9FF00D9C9FF00D30
S11338C011246E0F7F1F5F96ED91FC919097E60F88
S11338D0F71F4770552781E090E001C0880F4A9593
S11338E0EAF7482F0130110539F078F0023011055C
S11338F0E9F42E0F3F1F13C02E0F3F1FE217F307EB
S1133900A9F08081842B8193F9CF80952E0F3F1FDE
S1133910E217F30759F0908198239193F9CFE217B6
S1133920F30721F0808184278193F9CFDF91CF9130
S11339301F910F910895EF92FF920F931F93CF93CE
S1133940DF93EC0177FDA5C0EC80FD806E157F054B
S11339500CF09FC057FF04C0240F351F40E050E017
S11339608E819F81FA01E20FF31F8E179F071CF4CB
S11339709C01241B350B121613060CF08AC0922FDF
S1133980842F8695869586958E9DD0018F9DB00D4A
S113399011246A0F7B1FAF8DB8A1A60FB71F477004
S11339A0B1F188E0841B482F682F70E0FB01EF5AC7
S11339B0F94FE491281798F4621B71092FEF30E056
S11339C002C0359527956A95E2F7E2230130110587
S11339D049F078F00230110509F05BC00EC00130E7
S11339E0110519F48C91E82B0AC00130110508F077
S11339F049C0E0958C91E82302C08C91E827EC93B0
S1133A00941708F446C02C813D81A20FB31FE92FFF
S1133A10E41BE830F8F00230110561F48E2F9C911C
S1133A2090959C932C813D81A20FB31F88508830C0
S1133A30B0F70FC081E00115110509F480E081950C
S1133A409E2F8C932C813D81A20FB31F98509830E8
S1133A50C0F7E770EE23E9F0F0E0E75BF94FE4919B
S1133A600130110539F048F00230110591F48C91C0
S1133A70E82706C08C91E82B03C0E0958C91E823DD
S1133A80EC9307C00230110509F4B7CFAE0DBF1D8A
S1133A90BECFDF91CF911F910F91FF90EF900895CA
S1133AA00F931F93DC015696EC915697E23061F028
S1133AB0E33009F1E13081F51496ED91FC9115970D
S1133AC0E41BF50B319723C0DC011496ED91FC91B6
S1133AD01597DF01A61BB70BBD01DC011696ED910E
S1133AE0FC911797DF01A41BB50BAD01415051099F
S1133AF0621B730B11C0FA01DC0116964D915C91A7
S1133B001797DA01A61BB70BBD01621B730BAB0140
S1133B10BF010E949B1C02C00E942B1C1F910F918D
S1133B2008950F931F93DC015696EC915697E2305B
S1133B3069F0E33011F1E13089F51496ED91FC91CF
S1133B401597E41BF50BE21BF30B23C0DC01149661
S1133B50ED91FC911597DF01A61BB70BBD016150D8
S1133B607109DC011696ED91FC911797DF01A41BF6
S1133B70B50BAD01421B530B11C0FA01DC011696C3
S1133B804D915C911797DA01A61BB70BBD016150EB
S1133B907109AB01BF010E942B1C02C00E949B1C37
S1133BA01F910F910895CF92DF92EF92FF920F939E
S1133BB01F93CF93DF93EC018D8D9E8D009739F089
S1133BC04FA958AD69AD7AAD0E94D71F0FC08B8D38
S1133BD09C8D892B21F08DA99EA90E949218EFA596
S1133BE0F8A990818CA980958923808345E064E4B9
S1133BF076E0CE010E949F196C816150CE010E9433
S1133C00F7182E813F81C901079697FD079623E097
S1133C10959587952A95E1F72C813D81829F7001C6
S1133C20839FF00C929FF00C11240F8D18A18D8DA1
S1133C309E8DE00EF11E009709F43FC069A1062E87
S1133C40000C770B0E94E51F8D8D9E8DDC01ED919C
S1133C50FC910190F081E02D60E40995680111E088
S1133C608D8D9E8DEC14FD0429F11032A8F00E9474
S1133C70FA1F69A1062E000C770B8D8D9E8D0E9474
S1133C80E51F8D8D9E8DDC01ED91FC910190F081FD
S1133C90E02D60E4099511E08D8D9E8DF601619112
S1133CA06F01DC01ED91FC910190F081E02D09950B
S1133CB01F5FD6CF0E94FA1F35C0EDA5FEA59081E7
S1133CC08BA9892B80830E151F0561F1F801819161
S1133CD08F012B8D3C8D232B19F00E94AC18F3CF50
S1133CE028E030E040E8E9A5FAA599A9582F542323
S1133CF019F05081952B03C05081909595239083A2
S1133D00EBA5FCA550819AA9952B9083EBA5FCA566
S1133D1050819AA990959523908346952150310915
S1133D2011F7D1CF8D8D9E8D009771F04BAD5CADA9
S1133D306DAD7EADDF91CF911F910F91FF90EF900C
S1133D40DF90CF900C94D71FEFA5F8A990818CA990
S1133D50892B80838B8D9C8D892B51F0DF91CF91A2
S1133D601F910F91FF90EF90DF90CF900C94B318B8
S1133D70DF91CF911F910F91FF90EF90DF90CF9043
S1133D800895CF93CFB7F89480912E03811127C063
S1133D90ECE1F1E08491E8E0F1E09491E82FF0E0C7
S1133DA0EE0FFF1FE65CFE4FA591B491EC91E92361
S1133DB021F461E08AE00E940A1161E08AE00E9435
S1133DC0CE108CB580618CBD8CB580648CBD61E0F7
S1133DD08DE00E94CE1061E08BE00E94CE108091B5
S1133DE02E038F5F80932E03CFBFCF9108958091D0
S1133DF0630390E020916403821B910908959091DC
S1133E00640380916303981750F4E92FF0E0EB59B1
S1133E10FC4F208130E09F5F9093640302C02FEF3A
S1133E203FEFC9010895E091640380916303E817AB
S1133E3030F4F0E0EB59FC4F808190E008958FEF6F
S1133E409FEF08950895CF93DF93EC01E0913B0336
S1133E50F0913C033097F1F09091640380916303F7
S1133E609817C0F090E0292F30E02617370754F454
S1133E70DE01A20FB31F4C91D901AB59BC4F4C9337
S1133E809F5FF1CF1092640360936303CB01DF91D2
S1133E90CF910994DF91CF910895E0913D03F09182
S1133EA03E03309729F01092410310924003099485
S1133EB00895CF92DF92EF92FF920F931F93CF93C7
S1133EC0DF937C01CB018A0120913F03222389F0F7
S1133ED0EB016B01C40ED51ECC15DD0569F06991AB
S1133EE0D701ED91FC910190F081E02DC701099576
S1133EF0F3CF642F0E948C20C801DF91CF911F91D2
S1133F000F91FF90EF90DF90CF900895CF93DF93C0
S1133F101F92CDB7DEB7698320913F032223D1F0EE
S1133F2020914003203240F021E030E0FC01338353
S1133F30228380E090E015C080914103E82FF0E0F7
S1133F40EE5BFC4F998190838F5F80934103809354
S1133F50400305C061E0CE0101960E948C2081E0FF
S1133F6090E00F90DF91CF910895FC0113821282AB
S1133F7088EE93E0A0E0B0E084839583A683B783C2
S1133F808DE891E0918380830895109264031092E8
S1133F90630310924103109240030E9404208DE4B5
S1133FA09FE10E94B92083E29FE10C94B420CB01ED
S1133FB0BA010C94222081E080933F036093620352
S1133FC0109241031092400308950C94DB1F0F9349
S1133FD0062F21E04091400362E473E08091620384
S1133FE00E943620109241031092400310923F0326
S1133FF00F91089561E00C94E71F8FE293E00C9415
S1134000B51F0E94782308951092F20381E08093F3
S1134010F0031092EF0361E082E10E940A1161E073
S113402083E10E940A11E9EBF0E080818E7F8083B6
S113403080818D7F808388E48093B80085E48093B9
S1134040BC0008959B01AC0160E074E284EF90E051
S11340500E941B22DA01C9014097A109B109B69552
S1134060A795979587958093B80008950F9341324B
S113407008F04AC09091F2039111FCCF32E03093E2
S1134080F2030093F0033FEF309385031092CA03C9
S11340904093C903562FABECB3E0FB013E2F351B15
S11340A0341718F431913D93F9CF1092F103309104
S11340B0F103880F832B8093F1038091EF03813008
S11340C061F41092EF038091F1038093BB0080911F
S11340D0BC0083FDF8CF85EC01C085EE8093BC0065
S11340E0222321F08091F2038230D1F38091850361
S11340F08F3F79F080918503803241F08091850370
S1134100803331F094E005C091E003C092E001C037
S113411093E0892F0F9108954091A703262F30E053
S1134120240F311D21323105DCF42091F2032430B7
S1134130C9F4FC0180E090E0861758F43091A7039D
S11341402191DC01A755BC4FA30FB11D2C930196FF
S1134150F3CF8091A703680F6093A70380E00895CD
S113416081E0089582E008959093EC038093EB033B
S113417008959093EE038093ED03089585ED809365
S1134180BC008091BC0084FDFCCF1092F203089522
S113419085EC8093BC001092F20308951F920F9255
S11341A00FB60F9211242F933F934F935F936F9306
S11341B07F938F939F93AF93BF93EF93FF938091DC
S11341C0B900887F803609F49EC078F5883209F4F6
S11341D05DC090F4803109F456C038F4882309F4A2
S11341E0F5C0883009F44FC0F5C0883109F44EC0D9
S11341F0803209F45FC0EEC0803409F46AC058F418
S1134200803309F457C0883309F0E4C080938503F0
S11342100E94C820DFC0803509F44FC0883509F4F6
S11342205DC0883409F0D6C0D3C0883909F4C4C04D
S1134230A8F4883709F467C038F4883609F463C0F1
S1134240803709F460C0C6C0883809F4B5C0803925
S113425009F45FC0803809F0BDC05BC0803B09F43D
S113426083C038F4803A09F466C0883A09F47CC003
S1134270B1C0803C09F4A4C0883C09F4A1C0883BC7
S113428009F487C0A7C08091F10310C09091CA03BC
S11342908091C903981770F5E091CA0381E08E0FED
S11342A08093CA03F0E0E553FC4F80818093BB0008
S11342B085EC83C0809385038BC0E091CA0381E0C1
S11342C08E0F8093CA038091BB00F0E0E553FC4F4E
S11342D080839091CA038091C9036BC0E091CA03A3
S11342E081E08E0F8093CA038091BB00F0E0E55318
S11342F0FC4F80838091F00381116AC081E0809338
S1134300EF0384EA5EC083E08093F2031092860395
S1134310CFCF80918603803208F04EC0E0918603AF
S113432081E08E0F809386038091BB00F0E0E95713
S1134330FC4F8083BDCF0E94C820809186038032C9
S113434030F4E0918603F0E0E957FC4F108260916D
S1134350860370E0E091EB03F091EC0387E893E0CF
S113436009951092860336C084E08093F20310927C
S1134370A8031092A703E091ED03F091EE030995D1
S11343808091A703811105C081E08093A703109257
S1134390A903E091A80381E08E0F8093A803F0E0C5
S11343A0E755FC4F80818093BB009091A8038091D6
S11343B0A703981708F47CCF85E88093BC000AC053
S11343C085EC8093BC001092F20304C01092850324
S11343D00E94BE20FF91EF91BF91AF919F918F9169
S11343E07F916F915F914F913F912F910F900FBEED
S11343F00F901F901895991B79E004C0991F961788
S113440008F0961B881F7A95C9F78095089597FB45
S1134410072E16F4009407D077FD09D00E943D22A0
S113442007FC05D03EF4909581959F4F08957095B3
S113443061957F4F0895A1E21A2EAA1BBB1BFD01B3
S11344400DC0AA1FBB1FEE1FFF1FA217B307E4076F
S1134450F50720F0A21BB30BE40BF50B661F771FC7
S1134460881F991F1A9469F76095709580959095A7
S11344709B01AC01BD01CF010895AA1BBB1B51E1F7
S113448007C0AA1FBB1FA617B70710F0A61BB70BC0
S1134490881F991F5A95A9F780959095BC01CD0165
S11344A00895EE0FFF1F0590F491E02D09940F93EA
S11344B01F93CF93DF938230910510F482E090E054
S11344C0E091F503F091F60320E030E0A0E0B0E0E5
S11344D0309719F14081518102811381481759079E
S11344E0C8F08417950769F4109731F012960C936D
S11344F0129713961C9327C00093F5031093F603A9
S113450022C02115310519F04217530718F49A01F6
S1134510BD01EF01DF01F801DBCF21153105F9F011
S1134520281B390B2430310580F48A819B81611565
S1134530710521F0FB019383828304C09093F603F9
S11345408093F503FE01329644C0FE01E20FF31F8F
S11345508193919322503109398328833AC0209161
S1134560F3033091F403232B41F4209102013091A1
S113457003013093F4032093F3032091000130915D
S113458001012115310541F42DB73EB740910401D5
S113459050910501241B350BE091F303F091F403D2
S11345A0E217F307A0F42E1B3F0B2817390778F006
S11345B0AC014E5F5F4F2417350748F04E0F5F1F65
S11345C05093F4034093F3038193919302C0E0E08A
S11345D0F0E0CF01DF91CF911F910F910895CF9318
S11345E0DF93009709F481C0FC0132971382128291
S11345F0A091F503B091F603109781F420813181E5
S1134600820F931F2091F3033091F4032817390785
S113461051F5F093F403E093F30367C0ED0120E058
S113462030E0CE17DF0740F44A815B819E014115DB
S11346305105F1F0EA01F5CFD383C2834081518162
S1134640840F951FC817D90759F488819981840F5D
S1134650951F0296918380838A819B8193838283B1
S11346602115310529F4F093F603E093F5033DC0D9
S1134670E901FB83EA8349915991C40FD51FEC17D3
S1134680FD0761F480819181840F951F0296E901F1
S113469099838883828193819B838A83E0E0F0E01D
S11346A012968D919C911397009719F0FD01DC01EE
S11346B0F7CF8D919C9111979D012E5F3F4F820FF3
S11346C0931F2091F3033091F4032817390769F4F9
S11346D0309729F41092F6031092F50302C0138266
S11346E01282B093F403A093F303DF91CF91089562
S11346F081E090E0F8940C946E26DC0101C06D9387
S113470041505040E0F70895AEE0B0E0EAE8F3E24B
S11347100C9445260D891E8986E08C831A830983AF
S11347208FEF9FE79E838D83AE01475E5F4F6F8956
S1134730788DCE0101960E94A623EF81F885E00FC3
S1134740F11F10822E96E4E00C946126ABE0B0E0F9
S1134750ECEAF3E20C9437266C017B018A01FC013C
S113476017821682838181FFCCC1CE0101963C0160
S1134770F6019381F70193FD859193FF81917F0168
S1134780882309F4BAC1853239F493FD859193FFE6
S113479081917F01853229F4B60190E00E949D2524
S11347A0E7CF912C212C312CFFE1F315D8F08B327B
S11347B079F038F4803279F08332A1F4232D20612A
S11347C01DC08D3261F0803369F4232D216016C041
S11347D0832D8260382EE32DE4603E2E2AC0F32D13
S11347E0F8601DC037FC2DC020ED280F2A3040F0A2
S11347F08E32B9F436FC81C1232D2064322E19C0C7
S113480036FE06C08AE0989E200D1124922E11C017
S1134810EAE02E9E200D1124222EF32DF0623F2E6D
S113482008C08C3621F4832D8068382E02C0883667
S113483041F4F70193FD859193FF81917F018111EB
S1134840B3CF982F9F7D9554933028F40C5F1F4F5E
S11348509FE399830DC0833631F0833771F083353C
S113486009F059C021C0F801808189830E5F1F4F70
S113487088248394912C530113C02801F2E04F0E35
S1134880511CF801A080B18036FE03C0692D70E090
S113489002C06FEF7FEFC5010E9492254C01820197
S11348A0F32DFF773F2E16C0280122E0420E511C43
S11348B0F801A080B18036FE03C0692D70E002C00B
S11348C06FEF7FEFC5010E9487254C01F32DF0683F
S11348D03F2E820133FC1BC0822D90E0881699067E
S11348E0B0F4B60180E290E00E949D252A94F4CFB2
S11348F0F50137FC859137FE81915F01B60190E0A7
S11349000E949D2521102A9421E0821A9108811485
S1134910910471F7E8C0843611F0893641F5F80145
S113492037FE07C060817181828193810C5F1F4FC4
S113493008C060817181072E000C880B990B0E5FF3
S11349401F4FF32DFF763F2E97FF09C0909580955A
S1134950709561957F4F8F4F9F4FF0683F2E2AE0EF
S113496030E0A3010E94D925882E861845C08537DA
S113497031F4232D2F7EB22E2AE030E025C0932D72
S1134980997FB92E8F36C1F018F4883579F0B5C007
S1134990803719F0883721F0B0C0E92FE061BE2ECE
S11349A0B4FE0DC0FB2DF460BF2E09C034FE0AC056
S11349B0292F2660B22E06C028E030E005C020E191
S11349C030E002C020E132E0F801B7FE07C06081A8
S11349D07181828193810C5F1F4F06C06081718158
S11349E080E090E00E5F1F4FA3010E94D925882E1E
S11349F08618FB2DFF773F2E36FE0DC0232D2E7F0C
S1134A00A22E891458F434FE0BC032FC09C0832D45
S1134A108E7EA82E05C0B82CA32C03C0B82C01C0D0
S1134A20B92CA4FE0FC0FE01E80DF11D8081803376
S1134A3021F49A2D997EA92E09C0A2FE06C0B39432
S1134A40B39404C08A2D867809F0B394A3FC11C0F2
S1134A50A0FE06C0B21488F4280C922C9B180EC039
S1134A60B21460F4B60180E290E00E949D25B394F4
S1134A70F7CFB21418F42B1802C0982C212CA4FEE2
S1134A8010C0B60180E390E00E949D25A2FE17C0ED
S1134A90A1FC03C088E790E002C088E590E0B6017D
S1134AA00CC08A2D867859F0A1FE02C08BE201C0A9
S1134AB080E2A7FC8DE2B60190E00E949D25891456
S1134AC038F4B60180E390E00E949D259A94F7CFD4
S1134AD08A94F301E80DF11D8081B60190E00E94F3
S1134AE09D258110F5CF222009F442CEB60180E243
S1134AF090E00E949D252A94F6CFF6018681978145
S1134B0002C08FEF9FEF2B96E2E10C945326FC0139
S1134B100590615070400110D8F7809590958E0FE4
S1134B209F1F0895FC016150704001900110D8F757
S1134B30809590958E0F9F1F08950F931F93CF9389
S1134B40DF93FB01238121FD03C08FEF9FEF2CC076
S1134B5022FF16C0468157812481358142175307AD
S1134B6044F4A081B1819D012F5F3F4F31832083A5
S1134B708C93268137812F5F3F4F3783268314C060
S1134B808B01EC01FB010084F185E02D0995892B53
S1134B90E1F6D80116968D919C9117970196179678
S1134BA09C938E931697CE01DF91CF911F910F9115
S1134BB00895FA01AA27283051F1203181F1E894AF
S1134BC06F936E7F6E5F7F4F8F4F9F4FAF4FB1E0FC
S1134BD03ED0B4E03CD0670F781F891F9A1FA11DF7
S1134BE0680F791F8A1F911DA11D6A0F711D811DF8
S1134BF0911DA11D20D009F468943F912AE0269FBD
S1134C0011243019305D3193DEF6CF010895462F1B
S1134C104770405D4193B3E00FD0C9F7F6CF462FFC
S1134C204F70405D4A3318F0495D31FD4052419365
S1134C3002D0A9F7EACFB4E0A69597958795779522
S1134C406795BA95C9F700976105710508959B01A9
S1134C50AC010A2E06945795479537952795BA9532
S1134C60C9F7620F731F841F951FA01D08952F920B
S1134C703F924F925F926F927F928F929F92AF92E8
S1134C80BF92CF92DF92EF92FF920F931F93CF9335
S1134C90DF93CDB7DEB7CA1BDB0B0FB6F894DEBFCC
S1134CA00FBECDBF09942A88398848885F846E84F2
S1134CB07D848C849B84AA84B984C884DF80EE803C
S1134CC0FD800C811B81AA81B981CE0FD11D0FB645
S1134CD0F894DEBF0FBECDBFED01089515E0CEE818
S1134CE0D5E004C0FE010E9451222196CF38D1079D
S1094CF0C9F7F894FFCFA0
S1134CF60000F7032000010125642E2530326400EC
S1134D0600000000180D8F0ED90C650DAB0CC50CF8
S1134D16B70C0D0A006E616E00696E66006F7666EA
S1134D260000000000EF168F0EEC0DEF0D0120437E
S1134D3612141233121B12271262114312E513E4E2
S1134D461344127D12B612FB1218138513000000C9
S1134D5600EF168F0EEC0DEF0DD517431214123318
S1134D66121B12271262114312E5135819911D5092
S1134D761DB612FB121813851300000000861F5976
S10F4D861FEC0D221FF71EFF1E131F0060
S9030000FC
